{
  "_format": "hh-sol-artifact-1",
  "contractName": "MerkleStorage",
  "sourceName": "contracts/MerkleStorage.sol",
  "abi": [
    {
      "anonymous": false,
      "inputs": [
        {
          "indexed": true,
          "internalType": "uint256",
          "name": "textId",
          "type": "uint256"
        },
        {
          "indexed": false,
          "internalType": "bytes32",
          "name": "root",
          "type": "bytes32"
        },
        {
          "indexed": false,
          "internalType": "bytes32[]",
          "name": "leaves",
          "type": "bytes32[]"
        },
        {
          "indexed": false,
          "internalType": "bytes32[]",
          "name": "intermediates",
          "type": "bytes32[]"
        }
      ],
      "name": "MerkleTreeStored",
      "type": "event"
    },
    {
      "inputs": [
        {
          "internalType": "uint256",
          "name": "textId",
          "type": "uint256"
        }
      ],
      "name": "getMerkleTree",
      "outputs": [
        {
          "internalType": "bytes32",
          "name": "",
          "type": "bytes32"
        },
        {
          "internalType": "bytes32[]",
          "name": "",
          "type": "bytes32[]"
        },
        {
          "internalType": "bytes32[]",
          "name": "",
          "type": "bytes32[]"
        }
      ],
      "stateMutability": "view",
      "type": "function"
    },
    {
      "inputs": [
        {
          "internalType": "bytes32",
          "name": "",
          "type": "bytes32"
        }
      ],
      "name": "sentenceHashes",
      "outputs": [
        {
          "internalType": "bool",
          "name": "",
          "type": "bool"
        }
      ],
      "stateMutability": "view",
      "type": "function"
    },
    {
      "inputs": [
        {
          "internalType": "uint256",
          "name": "textId",
          "type": "uint256"
        },
        {
          "internalType": "bytes32",
          "name": "root",
          "type": "bytes32"
        },
        {
          "internalType": "bytes32[]",
          "name": "leaves",
          "type": "bytes32[]"
        },
        {
          "internalType": "bytes32[]",
          "name": "intermediates",
          "type": "bytes32[]"
        }
      ],
      "name": "storeMerkleTree",
      "outputs": [],
      "stateMutability": "nonpayable",
      "type": "function"
    },
    {
      "inputs": [
        {
          "internalType": "uint256",
          "name": "",
          "type": "uint256"
        }
      ],
      "name": "trees",
      "outputs": [
        {
          "internalType": "bytes32",
          "name": "root",
          "type": "bytes32"
        },
        {
          "internalType": "bool",
          "name": "exists",
          "type": "bool"
        }
      ],
      "stateMutability": "view",
      "type": "function"
    }
  ],
  "bytecode": "0x608060405234801561001057600080fd5b50610c10806100206000396000f3fe608060405234801561001057600080fd5b506004361061004c5760003560e01c80637a508022146100515780638a6121ee1461008257806391e6a5ca1461009e578063f3ddf377146100d0575b600080fd5b61006b6004803603810190610066919061061f565b610100565b604051610079929190610680565b60405180910390f35b61009c6004803603810190610097919061073a565b610131565b005b6100b860048036038101906100b3919061061f565b6103db565b6040516100c79392919061089f565b60405180910390f35b6100ea60048036038101906100e591906108e4565b610555565b6040516100f79190610911565b60405180910390f35b60006020528060005260406000206000915090508060000154908060030160009054906101000a900460ff16905082565b60008087815260200190815260200160002060030160009054906101000a900460ff1615610194576040517f08c379a000000000000000000000000000000000000000000000000000000000815260040161018b90610989565b60405180910390fd5b60005b8484905081101561027357600160008686848181106101b9576101b86109a9565b5b90506020020135815260200190815260200160002060009054906101000a900460ff161561021c576040517f08c379a000000000000000000000000000000000000000000000000000000000815260040161021390610a24565b60405180910390fd5b6001806000878785818110610234576102336109a9565b5b90506020020135815260200190815260200160002060006101000a81548160ff021916908315150217905550808061026b90610a73565b915050610197565b506040518060800160405280868152602001858580806020026020016040519081016040528093929190818152602001838360200280828437600081840152601f19601f820116905080830192505050505050508152602001838380806020026020016040519081016040528093929190818152602001838360200280828437600081840152601f19601f82011690508083019250505050505050815260200160011515815250600080888152602001908152602001600020600082015181600001556020820151816001019080519060200190610352929190610575565b50604082015181600201908051906020019061036f929190610575565b5060608201518160030160006101000a81548160ff021916908315150217905550905050857f6a125c6e5e23dffe89ea6f6b11affdc1676fbedc4ee75900d34634701c13eb7686868686866040516103cb959493929190610b25565b60405180910390a2505050505050565b600060608060008085815260200190815260200160002060030160009054906101000a900460ff16610442576040517f08c379a000000000000000000000000000000000000000000000000000000000815260040161043990610bba565b60405180910390fd5b600080600086815260200190815260200160002060405180608001604052908160008201548152602001600182018054806020026020016040519081016040528092919081815260200182805480156104ba57602002820191906000526020600020905b8154815260200190600101908083116104a6575b505050505081526020016002820180548060200260200160405190810160405280929190818152602001828054801561051257602002820191906000526020600020905b8154815260200190600101908083116104fe575b505050505081526020016003820160009054906101000a900460ff1615151515815250509050806000015181602001518260400151935093509350509193909250565b60016020528060005260406000206000915054906101000a900460ff1681565b8280548282559060005260206000209081019282156105b1579160200282015b828111156105b0578251825591602001919060010190610595565b5b5090506105be91906105c2565b5090565b5b808211156105db5760008160009055506001016105c3565b5090565b600080fd5b600080fd5b6000819050919050565b6105fc816105e9565b811461060757600080fd5b50565b600081359050610619816105f3565b92915050565b600060208284031215610635576106346105df565b5b60006106438482850161060a565b91505092915050565b6000819050919050565b61065f8161064c565b82525050565b60008115159050919050565b61067a81610665565b82525050565b60006040820190506106956000830185610656565b6106a26020830184610671565b9392505050565b6106b28161064c565b81146106bd57600080fd5b50565b6000813590506106cf816106a9565b92915050565b600080fd5b600080fd5b600080fd5b60008083601f8401126106fa576106f96106d5565b5b8235905067ffffffffffffffff811115610717576107166106da565b5b602083019150836020820283011115610733576107326106df565b5b9250929050565b60008060008060008060808789031215610757576107566105df565b5b600061076589828a0161060a565b965050602061077689828a016106c0565b955050604087013567ffffffffffffffff811115610797576107966105e4565b5b6107a389828a016106e4565b9450945050606087013567ffffffffffffffff8111156107c6576107c56105e4565b5b6107d289828a016106e4565b92509250509295509295509295565b600081519050919050565b600082825260208201905092915050565b6000819050602082019050919050565b6108168161064c565b82525050565b6000610828838361080d565b60208301905092915050565b6000602082019050919050565b600061084c826107e1565b61085681856107ec565b9350610861836107fd565b8060005b83811015610892578151610879888261081c565b975061088483610834565b925050600181019050610865565b5085935050505092915050565b60006060820190506108b46000830186610656565b81810360208301526108c68185610841565b905081810360408301526108da8184610841565b9050949350505050565b6000602082840312156108fa576108f96105df565b5b6000610908848285016106c0565b91505092915050565b60006020820190506109266000830184610671565b92915050565b600082825260208201905092915050565b7f5472656520616c72656164792073746f72656420666f72207465787449640000600082015250565b6000610973601e8361092c565b915061097e8261093d565b602082019050919050565b600060208201905081810360008301526109a281610966565b9050919050565b7f4e487b7100000000000000000000000000000000000000000000000000000000600052603260045260246000fd5b7f4475706c6963617465206c65616620666f756e64000000000000000000000000600082015250565b6000610a0e60148361092c565b9150610a19826109d8565b602082019050919050565b60006020820190508181036000830152610a3d81610a01565b9050919050565b7f4e487b7100000000000000000000000000000000000000000000000000000000600052601160045260246000fd5b6000610a7e826105e9565b91507fffffffffffffffffffffffffffffffffffffffffffffffffffffffffffffffff8203610ab057610aaf610a44565b5b600182019050919050565b600080fd5b82818337505050565b6000610ad583856107ec565b93507f07ffffffffffffffffffffffffffffffffffffffffffffffffffffffffffffff831115610b0857610b07610abb565b5b602083029250610b19838584610ac0565b82840190509392505050565b6000606082019050610b3a6000830188610656565b8181036020830152610b4d818688610ac9565b90508181036040830152610b62818486610ac9565b90509695505050505050565b7f5472656520646f6573206e6f7420657869737400000000000000000000000000600082015250565b6000610ba460138361092c565b9150610baf82610b6e565b602082019050919050565b60006020820190508181036000830152610bd381610b97565b905091905056fea2646970667358221220a934cd9f6cdc32ad9eda10537cd65167b9f580a0c7a03fb782c1e560c00bb21a64736f6c63430008140033",
  "linkReferences": {},
  "deployedLinkReferences": {}
}