{
  "_format": "hh-sol-artifact-1",
  "contractName": "ArticleTree",
  "sourceName": "contracts/ArticleTree.sol",
  "abi": [
    {
      "anonymous": false,
      "inputs": [
        {
          "indexed": false,
          "internalType": "uint256",
          "name": "id",
          "type": "uint256"
        },
        {
          "indexed": false,
          "internalType": "uint256",
          "name": "parentId",
          "type": "uint256"
        },
        {
          "indexed": false,
          "internalType": "bytes32",
          "name": "value",
          "type": "bytes32"
        }
      ],
      "name": "NodeAdded",
      "type": "event"
    },
    {
      "inputs": [
        {
          "internalType": "uint256[]",
          "name": "ids",
          "type": "uint256[]"
        },
        {
          "internalType": "uint256[]",
          "name": "parentIds",
          "type": "uint256[]"
        },
        {
          "internalType": "bytes32[]",
          "name": "values",
          "type": "bytes32[]"
        }
      ],
      "name": "addNodes",
      "outputs": [],
      "stateMutability": "nonpayable",
      "type": "function"
    },
    {
      "inputs": [],
      "name": "getAllNodeIds",
      "outputs": [
        {
          "internalType": "uint256[]",
          "name": "",
          "type": "uint256[]"
        }
      ],
      "stateMutability": "view",
      "type": "function"
    },
    {
      "inputs": [
        {
          "internalType": "uint256",
          "name": "nodeId",
          "type": "uint256"
        }
      ],
      "name": "getNode",
      "outputs": [
        {
          "internalType": "uint256",
          "name": "",
          "type": "uint256"
        },
        {
          "internalType": "uint256",
          "name": "",
          "type": "uint256"
        },
        {
          "internalType": "bytes32",
          "name": "",
          "type": "bytes32"
        }
      ],
      "stateMutability": "view",
      "type": "function"
    },
    {
      "inputs": [
        {
          "internalType": "uint256",
          "name": "",
          "type": "uint256"
        }
      ],
      "name": "nodeIds",
      "outputs": [
        {
          "internalType": "uint256",
          "name": "",
          "type": "uint256"
        }
      ],
      "stateMutability": "view",
      "type": "function"
    },
    {
      "inputs": [
        {
          "internalType": "uint256",
          "name": "",
          "type": "uint256"
        }
      ],
      "name": "nodes",
      "outputs": [
        {
          "internalType": "uint256",
          "name": "id",
          "type": "uint256"
        },
        {
          "internalType": "uint256",
          "name": "parentId",
          "type": "uint256"
        },
        {
          "internalType": "bytes32",
          "name": "value",
          "type": "bytes32"
        }
      ],
      "stateMutability": "view",
      "type": "function"
    }
  ],
  "bytecode": "0x608060405234801561001057600080fd5b50610bba806100206000396000f3fe608060405234801561001057600080fd5b50600436106100575760003560e01c80631c53c2801461005c5780634f0f4aa91461008e57806398543166146100c05780639a8abfda146100f0578063beefc4931461010c575b600080fd5b61007660048036038101906100719190610513565b61012a565b60405161008593929190610568565b60405180910390f35b6100a860048036038101906100a39190610513565b610154565b6040516100b793929190610568565b60405180910390f35b6100da60048036038101906100d59190610513565b6101e3565b6040516100e7919061059f565b60405180910390f35b61010a60048036038101906101059190610802565b610207565b005b610114610471565b6040516101219190610967565b60405180910390f35b60006020528060005260406000206000915090508060000154908060010154908060020154905083565b60008060008060008086815260200190815260200160002060000154036101b0576040517f08c379a00000000000000000000000000000000000000000000000000000000081526004016101a7906109e6565b60405180910390fd5b60008060008681526020019081526020016000209050806000015481600101548260020154935093509350509193909250565b600181815481106101f357600080fd5b906000526020600020016000915090505481565b81518351148015610219575080518351145b610258576040517f08c379a000000000000000000000000000000000000000000000000000000000815260040161024f90610a52565b60405180910390fd5b60005b835181101561046b57600080600086848151811061027c5761027b610a72565b5b6020026020010151815260200190815260200160002060000154146102d6576040517f08c379a00000000000000000000000000000000000000000000000000000000081526004016102cd90610aed565b60405180910390fd5b60405180606001604052808583815181106102f4576102f3610a72565b5b6020026020010151815260200184838151811061031457610313610a72565b5b6020026020010151815260200183838151811061033457610333610a72565b5b602002602001015181525060008086848151811061035557610354610a72565b5b6020026020010151815260200190815260200160002060008201518160000155602082015181600101556040820151816002015590505060018482815181106103a1576103a0610a72565b5b602002602001015190806001815401808255809150506001900390600052602060002001600090919091909150557fa2511dbe9ec8ba3c5b9c7da872f1457dc5455cc17f4fc25c7ae7b128cec0e27c84828151811061040357610402610a72565b5b602002602001015184838151811061041e5761041d610a72565b5b602002602001015184848151811061043957610438610a72565b5b602002602001015160405161045093929190610568565b60405180910390a1808061046390610b3c565b91505061025b565b50505050565b606060018054806020026020016040519081016040528092919081815260200182805480156104bf57602002820191906000526020600020905b8154815260200190600101908083116104ab575b5050505050905090565b6000604051905090565b600080fd5b600080fd5b6000819050919050565b6104f0816104dd565b81146104fb57600080fd5b50565b60008135905061050d816104e7565b92915050565b600060208284031215610529576105286104d3565b5b6000610537848285016104fe565b91505092915050565b610549816104dd565b82525050565b6000819050919050565b6105628161054f565b82525050565b600060608201905061057d6000830186610540565b61058a6020830185610540565b6105976040830184610559565b949350505050565b60006020820190506105b46000830184610540565b92915050565b600080fd5b6000601f19601f8301169050919050565b7f4e487b7100000000000000000000000000000000000000000000000000000000600052604160045260246000fd5b610608826105bf565b810181811067ffffffffffffffff82111715610627576106266105d0565b5b80604052505050565b600061063a6104c9565b905061064682826105ff565b919050565b600067ffffffffffffffff821115610666576106656105d0565b5b602082029050602081019050919050565b600080fd5b600061068f61068a8461064b565b610630565b905080838252602082019050602084028301858111156106b2576106b1610677565b5b835b818110156106db57806106c788826104fe565b8452602084019350506020810190506106b4565b5050509392505050565b600082601f8301126106fa576106f96105ba565b5b813561070a84826020860161067c565b91505092915050565b600067ffffffffffffffff82111561072e5761072d6105d0565b5b602082029050602081019050919050565b6107488161054f565b811461075357600080fd5b50565b6000813590506107658161073f565b92915050565b600061077e61077984610713565b610630565b905080838252602082019050602084028301858111156107a1576107a0610677565b5b835b818110156107ca57806107b68882610756565b8452602084019350506020810190506107a3565b5050509392505050565b600082601f8301126107e9576107e86105ba565b5b81356107f984826020860161076b565b91505092915050565b60008060006060848603121561081b5761081a6104d3565b5b600084013567ffffffffffffffff811115610839576108386104d8565b5b610845868287016106e5565b935050602084013567ffffffffffffffff811115610866576108656104d8565b5b610872868287016106e5565b925050604084013567ffffffffffffffff811115610893576108926104d8565b5b61089f868287016107d4565b9150509250925092565b600081519050919050565b600082825260208201905092915050565b6000819050602082019050919050565b6108de816104dd565b82525050565b60006108f083836108d5565b60208301905092915050565b6000602082019050919050565b6000610914826108a9565b61091e81856108b4565b9350610929836108c5565b8060005b8381101561095a57815161094188826108e4565b975061094c836108fc565b92505060018101905061092d565b5085935050505092915050565b600060208201905081810360008301526109818184610909565b905092915050565b600082825260208201905092915050565b7f4e6f646520646f6573206e6f7420657869737400000000000000000000000000600082015250565b60006109d0601383610989565b91506109db8261099a565b602082019050919050565b600060208201905081810360008301526109ff816109c3565b9050919050565b7f4172726179206c656e67746873206d757374206d617463680000000000000000600082015250565b6000610a3c601883610989565b9150610a4782610a06565b602082019050919050565b60006020820190508181036000830152610a6b81610a2f565b9050919050565b7f4e487b7100000000000000000000000000000000000000000000000000000000600052603260045260246000fd5b7f4e6f646520494420616c72656164792065786973747300000000000000000000600082015250565b6000610ad7601683610989565b9150610ae282610aa1565b602082019050919050565b60006020820190508181036000830152610b0681610aca565b9050919050565b7f4e487b7100000000000000000000000000000000000000000000000000000000600052601160045260246000fd5b6000610b47826104dd565b91507fffffffffffffffffffffffffffffffffffffffffffffffffffffffffffffffff8203610b7957610b78610b0d565b5b60018201905091905056fea2646970667358221220ae98e58b3de2505f8879110a6f46043fa48dd1a7ab30c8585efbe7272eb6932664736f6c63430008140033",
  "linkReferences": {},
  "deployedLinkReferences": {}
}