{
  "_format": "hh-sol-artifact-1",
  "contractName": "ArticleTree",
  "sourceName": "contracts/ArticleTree.sol",
  "abi": [
    {
      "anonymous": false,
      "inputs": [
        {
          "indexed": false,
          "internalType": "uint256",
          "name": "id",
          "type": "uint256"
        },
        {
          "indexed": false,
          "internalType": "uint256",
          "name": "parentId",
          "type": "uint256"
        },
        {
          "indexed": false,
          "internalType": "bytes32",
          "name": "value",
          "type": "bytes32"
        }
      ],
      "name": "NodeAdded",
      "type": "event"
    },
    {
      "inputs": [
        {
          "internalType": "uint256[]",
          "name": "ids",
          "type": "uint256[]"
        },
        {
          "internalType": "uint256[]",
          "name": "parentIds",
          "type": "uint256[]"
        },
        {
          "internalType": "bytes32[]",
          "name": "values",
          "type": "bytes32[]"
        }
      ],
      "name": "addNodes",
      "outputs": [],
      "stateMutability": "nonpayable",
      "type": "function"
    },
    {
      "inputs": [],
      "name": "getAllNodeIds",
      "outputs": [
        {
          "internalType": "uint256[]",
          "name": "",
          "type": "uint256[]"
        }
      ],
      "stateMutability": "view",
      "type": "function"
    },
    {
      "inputs": [
        {
          "internalType": "uint256",
          "name": "nodeId",
          "type": "uint256"
        }
      ],
      "name": "getNode",
      "outputs": [
        {
          "internalType": "uint256",
          "name": "",
          "type": "uint256"
        },
        {
          "internalType": "uint256",
          "name": "",
          "type": "uint256"
        },
        {
          "internalType": "bytes32",
          "name": "",
          "type": "bytes32"
        }
      ],
      "stateMutability": "view",
      "type": "function"
    },
    {
      "inputs": [
        {
          "internalType": "uint256",
          "name": "",
          "type": "uint256"
        }
      ],
      "name": "nodeIds",
      "outputs": [
        {
          "internalType": "uint256",
          "name": "",
          "type": "uint256"
        }
      ],
      "stateMutability": "view",
      "type": "function"
    },
    {
      "inputs": [
        {
          "internalType": "uint256",
          "name": "",
          "type": "uint256"
        }
      ],
      "name": "nodes",
      "outputs": [
        {
          "internalType": "uint256",
          "name": "id",
          "type": "uint256"
        },
        {
          "internalType": "uint256",
          "name": "parentId",
          "type": "uint256"
        },
        {
          "internalType": "bytes32",
          "name": "value",
          "type": "bytes32"
        }
      ],
      "stateMutability": "view",
      "type": "function"
    }
  ],
  "bytecode": "0x608060405234801561001057600080fd5b50610bbc806100206000396000f3fe608060405234801561001057600080fd5b50600436106100575760003560e01c80631c53c2801461005c5780634f0f4aa91461008e57806398543166146100c05780639a8abfda146100f0578063beefc4931461010c575b600080fd5b61007660048036038101906100719190610514565b61012a565b60405161008593929190610569565b60405180910390f35b6100a860048036038101906100a39190610514565b610154565b6040516100b793929190610569565b60405180910390f35b6100da60048036038101906100d59190610514565b6101e4565b6040516100e791906105a0565b60405180910390f35b61010a60048036038101906101059190610803565b610208565b005b610114610472565b6040516101219190610968565b60405180910390f35b60006020528060005260406000206000915090508060000154908060010154908060020154905083565b6000806000806000808681526020019081526020016000206000015414156101b1576040517f08c379a00000000000000000000000000000000000000000000000000000000081526004016101a8906109e7565b60405180910390fd5b60008060008681526020019081526020016000209050806000015481600101548260020154935093509350509193909250565b600181815481106101f457600080fd5b906000526020600020016000915090505481565b8151835114801561021a575080518351145b610259576040517f08c379a000000000000000000000000000000000000000000000000000000000815260040161025090610a53565b60405180910390fd5b60005b835181101561046c57600080600086848151811061027d5761027c610a73565b5b6020026020010151815260200190815260200160002060000154146102d7576040517f08c379a00000000000000000000000000000000000000000000000000000000081526004016102ce90610aee565b60405180910390fd5b60405180606001604052808583815181106102f5576102f4610a73565b5b6020026020010151815260200184838151811061031557610314610a73565b5b6020026020010151815260200183838151811061033557610334610a73565b5b602002602001015181525060008086848151811061035657610355610a73565b5b6020026020010151815260200190815260200160002060008201518160000155602082015181600101556040820151816002015590505060018482815181106103a2576103a1610a73565b5b602002602001015190806001815401808255809150506001900390600052602060002001600090919091909150557fa2511dbe9ec8ba3c5b9c7da872f1457dc5455cc17f4fc25c7ae7b128cec0e27c84828151811061040457610403610a73565b5b602002602001015184838151811061041f5761041e610a73565b5b602002602001015184848151811061043a57610439610a73565b5b602002602001015160405161045193929190610569565b60405180910390a1808061046490610b3d565b91505061025c565b50505050565b606060018054806020026020016040519081016040528092919081815260200182805480156104c057602002820191906000526020600020905b8154815260200190600101908083116104ac575b5050505050905090565b6000604051905090565b600080fd5b600080fd5b6000819050919050565b6104f1816104de565b81146104fc57600080fd5b50565b60008135905061050e816104e8565b92915050565b60006020828403121561052a576105296104d4565b5b6000610538848285016104ff565b91505092915050565b61054a816104de565b82525050565b6000819050919050565b61056381610550565b82525050565b600060608201905061057e6000830186610541565b61058b6020830185610541565b610598604083018461055a565b949350505050565b60006020820190506105b56000830184610541565b92915050565b600080fd5b6000601f19601f8301169050919050565b7f4e487b7100000000000000000000000000000000000000000000000000000000600052604160045260246000fd5b610609826105c0565b810181811067ffffffffffffffff82111715610628576106276105d1565b5b80604052505050565b600061063b6104ca565b90506106478282610600565b919050565b600067ffffffffffffffff821115610667576106666105d1565b5b602082029050602081019050919050565b600080fd5b600061069061068b8461064c565b610631565b905080838252602082019050602084028301858111156106b3576106b2610678565b5b835b818110156106dc57806106c888826104ff565b8452602084019350506020810190506106b5565b5050509392505050565b600082601f8301126106fb576106fa6105bb565b5b813561070b84826020860161067d565b91505092915050565b600067ffffffffffffffff82111561072f5761072e6105d1565b5b602082029050602081019050919050565b61074981610550565b811461075457600080fd5b50565b60008135905061076681610740565b92915050565b600061077f61077a84610714565b610631565b905080838252602082019050602084028301858111156107a2576107a1610678565b5b835b818110156107cb57806107b78882610757565b8452602084019350506020810190506107a4565b5050509392505050565b600082601f8301126107ea576107e96105bb565b5b81356107fa84826020860161076c565b91505092915050565b60008060006060848603121561081c5761081b6104d4565b5b600084013567ffffffffffffffff81111561083a576108396104d9565b5b610846868287016106e6565b935050602084013567ffffffffffffffff811115610867576108666104d9565b5b610873868287016106e6565b925050604084013567ffffffffffffffff811115610894576108936104d9565b5b6108a0868287016107d5565b9150509250925092565b600081519050919050565b600082825260208201905092915050565b6000819050602082019050919050565b6108df816104de565b82525050565b60006108f183836108d6565b60208301905092915050565b6000602082019050919050565b6000610915826108aa565b61091f81856108b5565b935061092a836108c6565b8060005b8381101561095b57815161094288826108e5565b975061094d836108fd565b92505060018101905061092e565b5085935050505092915050565b60006020820190508181036000830152610982818461090a565b905092915050565b600082825260208201905092915050565b7f4e6f646520646f6573206e6f7420657869737400000000000000000000000000600082015250565b60006109d160138361098a565b91506109dc8261099b565b602082019050919050565b60006020820190508181036000830152610a00816109c4565b9050919050565b7f4172726179206c656e67746873206d757374206d617463680000000000000000600082015250565b6000610a3d60188361098a565b9150610a4882610a07565b602082019050919050565b60006020820190508181036000830152610a6c81610a30565b9050919050565b7f4e487b7100000000000000000000000000000000000000000000000000000000600052603260045260246000fd5b7f4e6f646520494420616c72656164792065786973747300000000000000000000600082015250565b6000610ad860168361098a565b9150610ae382610aa2565b602082019050919050565b60006020820190508181036000830152610b0781610acb565b9050919050565b7f4e487b7100000000000000000000000000000000000000000000000000000000600052601160045260246000fd5b6000610b48826104de565b91507fffffffffffffffffffffffffffffffffffffffffffffffffffffffffffffffff821415610b7b57610b7a610b0e565b5b60018201905091905056fea26469706673582212206ea49f5cf46167fae658691da2cc1d68c26ce2659f78979c6b64d9c986687e0264736f6c63430008090033",
  "linkReferences": {},
  "deployedLinkReferences": {}
}