{
  "_format": "hh-sol-artifact-1",
  "contractName": "ArticleStorage",
  "sourceName": "contracts/ArticleStorage.sol",
  "abi": [
    {
      "anonymous": false,
      "inputs": [
        {
          "indexed": true,
          "internalType": "uint256",
          "name": "articleId",
          "type": "uint256"
        },
        {
          "indexed": false,
          "internalType": "bytes32[]",
          "name": "hashes",
          "type": "bytes32[]"
        }
      ],
      "name": "ArticleHashesStored",
      "type": "event"
    },
    {
      "inputs": [
        {
          "internalType": "uint256",
          "name": "",
          "type": "uint256"
        },
        {
          "internalType": "uint256",
          "name": "",
          "type": "uint256"
        }
      ],
      "name": "articles",
      "outputs": [
        {
          "internalType": "bytes32",
          "name": "",
          "type": "bytes32"
        }
      ],
      "stateMutability": "view",
      "type": "function"
    },
    {
      "inputs": [
        {
          "internalType": "uint256",
          "name": "articleId",
          "type": "uint256"
        }
      ],
      "name": "getArticleHashes",
      "outputs": [
        {
          "internalType": "bytes32[]",
          "name": "",
          "type": "bytes32[]"
        }
      ],
      "stateMutability": "view",
      "type": "function"
    },
    {
      "inputs": [
        {
          "internalType": "uint256",
          "name": "articleId",
          "type": "uint256"
        },
        {
          "internalType": "bytes32[]",
          "name": "hashes",
          "type": "bytes32[]"
        }
      ],
      "name": "storeArticle",
      "outputs": [],
      "stateMutability": "nonpayable",
      "type": "function"
    },
    {
      "inputs": [],
      "name": "totalArticles",
      "outputs": [
        {
          "internalType": "uint256",
          "name": "",
          "type": "uint256"
        }
      ],
      "stateMutability": "view",
      "type": "function"
    }
  ],
  "bytecode": "0x608060405234801561001057600080fd5b50610865806100206000396000f3fe608060405234801561001057600080fd5b506004361061004c5760003560e01c806375ad2da614610051578063bef2e1ee1461006d578063c419fb981461008b578063e05dcb50146100bb575b600080fd5b61006b600480360381019061006691906103ad565b6100eb565b005b61007561020f565b604051610082919061041c565b60405180910390f35b6100a560048036038101906100a09190610437565b610215565b6040516100b29190610490565b60405180910390f35b6100d560048036038101906100d091906104ab565b610246565b6040516100e29190610596565b60405180910390f35b60008060008581526020019081526020016000208054905014610143576040517f08c379a000000000000000000000000000000000000000000000000000000000815260040161013a9061063b565b60405180910390fd5b60005b828290508110156101b6576000808581526020019081526020016000208383838181106101765761017561065b565b5b90506020020135908060018154018082558091505060019003906000526020600020016000909190919091505580806101ae906106b9565b915050610146565b5060018060008282546101c99190610701565b92505081905550827ff4a0d6e3a3a0759a86682df39b42a6db9ffcd84a27671c65cf4fb689439afb51838360405161020292919061079f565b60405180910390a2505050565b60015481565b6000602052816000526040600020818154811061023157600080fd5b90600052602060002001600091509150505481565b6060600080600084815260200190815260200160002080549050116102a0576040517f08c379a00000000000000000000000000000000000000000000000000000000081526004016102979061080f565b60405180910390fd5b6000808381526020019081526020016000208054806020026020016040519081016040528092919081815260200182805480156102fc57602002820191906000526020600020905b8154815260200190600101908083116102e8575b50505050509050919050565b600080fd5b600080fd5b6000819050919050565b61032581610312565b811461033057600080fd5b50565b6000813590506103428161031c565b92915050565b600080fd5b600080fd5b600080fd5b60008083601f84011261036d5761036c610348565b5b8235905067ffffffffffffffff81111561038a5761038961034d565b5b6020830191508360208202830111156103a6576103a5610352565b5b9250929050565b6000806000604084860312156103c6576103c5610308565b5b60006103d486828701610333565b935050602084013567ffffffffffffffff8111156103f5576103f461030d565b5b61040186828701610357565b92509250509250925092565b61041681610312565b82525050565b6000602082019050610431600083018461040d565b92915050565b6000806040838503121561044e5761044d610308565b5b600061045c85828601610333565b925050602061046d85828601610333565b9150509250929050565b6000819050919050565b61048a81610477565b82525050565b60006020820190506104a56000830184610481565b92915050565b6000602082840312156104c1576104c0610308565b5b60006104cf84828501610333565b91505092915050565b600081519050919050565b600082825260208201905092915050565b6000819050602082019050919050565b61050d81610477565b82525050565b600061051f8383610504565b60208301905092915050565b6000602082019050919050565b6000610543826104d8565b61054d81856104e3565b9350610558836104f4565b8060005b838110156105895781516105708882610513565b975061057b8361052b565b92505060018101905061055c565b5085935050505092915050565b600060208201905081810360008301526105b08184610538565b905092915050565b600082825260208201905092915050565b7f41727469636c6520616c72656164792073746f72656420666f7220617274696360008201527f6c65496400000000000000000000000000000000000000000000000000000000602082015250565b60006106256024836105b8565b9150610630826105c9565b604082019050919050565b6000602082019050818103600083015261065481610618565b9050919050565b7f4e487b7100000000000000000000000000000000000000000000000000000000600052603260045260246000fd5b7f4e487b7100000000000000000000000000000000000000000000000000000000600052601160045260246000fd5b60006106c482610312565b91507fffffffffffffffffffffffffffffffffffffffffffffffffffffffffffffffff82036106f6576106f561068a565b5b600182019050919050565b600061070c82610312565b915061071783610312565b925082820190508082111561072f5761072e61068a565b5b92915050565b600080fd5b82818337505050565b600061074f83856104e3565b93507f07ffffffffffffffffffffffffffffffffffffffffffffffffffffffffffffff83111561078257610781610735565b5b60208302925061079383858461073a565b82840190509392505050565b600060208201905081810360008301526107ba818486610743565b90509392505050565b7f41727469636c6520646f6573206e6f7420657869737400000000000000000000600082015250565b60006107f96016836105b8565b9150610804826107c3565b602082019050919050565b60006020820190508181036000830152610828816107ec565b905091905056fea2646970667358221220d65dce2099a1b56e0c52d2a772594eaee63933cfd97c93b5e2650f3ab20470ef64736f6c63430008140033",
  "linkReferences": {},
  "deployedLinkReferences": {}
}