{
  "_format": "hh-sol-artifact-1",
  "contractName": "ArticleStorage",
  "sourceName": "contracts/ArticleStorage.sol",
  "abi": [
    {
      "anonymous": false,
      "inputs": [
        {
          "indexed": true,
          "internalType": "uint256",
          "name": "articleId",
          "type": "uint256"
        },
        {
          "indexed": false,
          "internalType": "string",
          "name": "cid",
          "type": "string"
        }
      ],
      "name": "ArticleCIDStored",
      "type": "event"
    },
    {
      "inputs": [
        {
          "internalType": "uint256",
          "name": "",
          "type": "uint256"
        }
      ],
      "name": "articleCIDs",
      "outputs": [
        {
          "internalType": "string",
          "name": "",
          "type": "string"
        }
      ],
      "stateMutability": "view",
      "type": "function"
    },
    {
      "inputs": [
        {
          "internalType": "uint256",
          "name": "articleId",
          "type": "uint256"
        }
      ],
      "name": "getArticleCID",
      "outputs": [
        {
          "internalType": "string",
          "name": "",
          "type": "string"
        }
      ],
      "stateMutability": "view",
      "type": "function"
    },
    {
      "inputs": [
        {
          "internalType": "uint256",
          "name": "articleId",
          "type": "uint256"
        },
        {
          "internalType": "string",
          "name": "cid",
          "type": "string"
        }
      ],
      "name": "storeArticleCID",
      "outputs": [],
      "stateMutability": "nonpayable",
      "type": "function"
    },
    {
      "inputs": [],
      "name": "totalArticles",
      "outputs": [
        {
          "internalType": "uint256",
          "name": "",
          "type": "uint256"
        }
      ],
      "stateMutability": "view",
      "type": "function"
    }
  ],
  "bytecode": "0x608060405234801561001057600080fd5b50610b3e806100206000396000f3fe608060405234801561001057600080fd5b506004361061004c5760003560e01c80637a12e77c14610051578063814531b61461006d578063be68e2e21461009d578063bef2e1ee146100cd575b600080fd5b61006b6004803603810190610066919061045c565b6100eb565b005b610087600480360381019061008291906104bc565b61020c565b6040516100949190610579565b60405180910390f35b6100b760048036038101906100b291906104bc565b610311565b6040516100c49190610579565b60405180910390f35b6100d56103b1565b6040516100e291906105aa565b60405180910390f35b6000806000858152602001908152602001600020805461010a906105f4565b90501461014c576040517f08c379a000000000000000000000000000000000000000000000000000000000815260040161014390610697565b60405180910390fd5b60008282905011610192576040517f08c379a000000000000000000000000000000000000000000000000000000000815260040161018990610703565b60405180910390fd5b818160008086815260200190815260200160002091826101b3929190610909565b5060018060008282546101c69190610a08565b92505081905550827fa267f256aa41049a76b89955bb55c7d8e651318c1dc14001339f0e1a0639083b83836040516101ff929190610a78565b60405180910390a2505050565b60606000806000848152602001908152602001600020805461022d906105f4565b90501161026f576040517f08c379a000000000000000000000000000000000000000000000000000000000815260040161026690610ae8565b60405180910390fd5b600080838152602001908152602001600020805461028c906105f4565b80601f01602080910402602001604051908101604052809291908181526020018280546102b8906105f4565b80156103055780601f106102da57610100808354040283529160200191610305565b820191906000526020600020905b8154815290600101906020018083116102e857829003601f168201915b50505050509050919050565b60006020528060005260406000206000915090508054610330906105f4565b80601f016020809104026020016040519081016040528092919081815260200182805461035c906105f4565b80156103a95780601f1061037e576101008083540402835291602001916103a9565b820191906000526020600020905b81548152906001019060200180831161038c57829003601f168201915b505050505081565b60015481565b600080fd5b600080fd5b6000819050919050565b6103d4816103c1565b81146103df57600080fd5b50565b6000813590506103f1816103cb565b92915050565b600080fd5b600080fd5b600080fd5b60008083601f84011261041c5761041b6103f7565b5b8235905067ffffffffffffffff811115610439576104386103fc565b5b60208301915083600182028301111561045557610454610401565b5b9250929050565b600080600060408486031215610475576104746103b7565b5b6000610483868287016103e2565b935050602084013567ffffffffffffffff8111156104a4576104a36103bc565b5b6104b086828701610406565b92509250509250925092565b6000602082840312156104d2576104d16103b7565b5b60006104e0848285016103e2565b91505092915050565b600081519050919050565b600082825260208201905092915050565b60005b83811015610523578082015181840152602081019050610508565b60008484015250505050565b6000601f19601f8301169050919050565b600061054b826104e9565b61055581856104f4565b9350610565818560208601610505565b61056e8161052f565b840191505092915050565b600060208201905081810360008301526105938184610540565b905092915050565b6105a4816103c1565b82525050565b60006020820190506105bf600083018461059b565b92915050565b7f4e487b7100000000000000000000000000000000000000000000000000000000600052602260045260246000fd5b6000600282049050600182168061060c57607f821691505b60208210810361061f5761061e6105c5565b5b50919050565b7f41727469636c6520616c72656164792073746f72656420666f7220617274696360008201527f6c65496400000000000000000000000000000000000000000000000000000000602082015250565b60006106816024836104f4565b915061068c82610625565b604082019050919050565b600060208201905081810360008301526106b081610674565b9050919050565b7f4349442063616e6e6f7420626520656d70747900000000000000000000000000600082015250565b60006106ed6013836104f4565b91506106f8826106b7565b602082019050919050565b6000602082019050818103600083015261071c816106e0565b9050919050565b600082905092915050565b7f4e487b7100000000000000000000000000000000000000000000000000000000600052604160045260246000fd5b60008190508160005260206000209050919050565b60006020601f8301049050919050565b600082821b905092915050565b6000600883026107bf7fffffffffffffffffffffffffffffffffffffffffffffffffffffffffffffffff82610782565b6107c98683610782565b95508019841693508086168417925050509392505050565b6000819050919050565b60006108066108016107fc846103c1565b6107e1565b6103c1565b9050919050565b6000819050919050565b610820836107eb565b61083461082c8261080d565b84845461078f565b825550505050565b600090565b61084961083c565b610854818484610817565b505050565b5b818110156108785761086d600082610841565b60018101905061085a565b5050565b601f8211156108bd5761088e8161075d565b61089784610772565b810160208510156108a6578190505b6108ba6108b285610772565b830182610859565b50505b505050565b600082821c905092915050565b60006108e0600019846008026108c2565b1980831691505092915050565b60006108f983836108cf565b9150826002028217905092915050565b6109138383610723565b67ffffffffffffffff81111561092c5761092b61072e565b5b61093682546105f4565b61094182828561087c565b6000601f831160018114610970576000841561095e578287013590505b61096885826108ed565b8655506109d0565b601f19841661097e8661075d565b60005b828110156109a657848901358255600182019150602085019450602081019050610981565b868310156109c357848901356109bf601f8916826108cf565b8355505b6001600288020188555050505b50505050505050565b7f4e487b7100000000000000000000000000000000000000000000000000000000600052601160045260246000fd5b6000610a13826103c1565b9150610a1e836103c1565b9250828201905080821115610a3657610a356109d9565b5b92915050565b82818337600083830152505050565b6000610a5783856104f4565b9350610a64838584610a3c565b610a6d8361052f565b840190509392505050565b60006020820190508181036000830152610a93818486610a4b565b90509392505050565b7f41727469636c6520646f6573206e6f7420657869737400000000000000000000600082015250565b6000610ad26016836104f4565b9150610add82610a9c565b602082019050919050565b60006020820190508181036000830152610b0181610ac5565b905091905056fea2646970667358221220262b076d2d994475513ab028f8c0e332108845fb4904cb9114ec9dfb438cf5ca64736f6c63430008140033",
  "linkReferences": {},
  "deployedLinkReferences": {}
}