{
  "_format": "hh-sol-artifact-1",
  "contractName": "ArticleTrees",
  "sourceName": "contracts/ArticleTrees.sol",
  "abi": [
    {
      "anonymous": false,
      "inputs": [
        {
          "indexed": false,
          "internalType": "uint256",
          "name": "treeId",
          "type": "uint256"
        },
        {
          "indexed": false,
          "internalType": "uint256",
          "name": "rootId",
          "type": "uint256"
        }
      ],
      "name": "TreeAdded",
      "type": "event"
    },
    {
      "inputs": [
        {
          "internalType": "uint256[]",
          "name": "ids",
          "type": "uint256[]"
        },
        {
          "internalType": "uint256[]",
          "name": "parentIds",
          "type": "uint256[]"
        },
        {
          "internalType": "bytes32[]",
          "name": "values",
          "type": "bytes32[]"
        }
      ],
      "name": "addTree",
      "outputs": [],
      "stateMutability": "nonpayable",
      "type": "function"
    },
    {
      "inputs": [],
      "name": "getTotalTrees",
      "outputs": [
        {
          "internalType": "uint256",
          "name": "",
          "type": "uint256"
        }
      ],
      "stateMutability": "view",
      "type": "function"
    },
    {
      "inputs": [
        {
          "internalType": "uint256",
          "name": "treeId",
          "type": "uint256"
        }
      ],
      "name": "getTree",
      "outputs": [
        {
          "internalType": "uint256",
          "name": "",
          "type": "uint256"
        },
        {
          "internalType": "uint256",
          "name": "",
          "type": "uint256"
        },
        {
          "components": [
            {
              "internalType": "uint256",
              "name": "id",
              "type": "uint256"
            },
            {
              "internalType": "uint256",
              "name": "parentId",
              "type": "uint256"
            },
            {
              "internalType": "bytes32",
              "name": "value",
              "type": "bytes32"
            }
          ],
          "internalType": "struct ArticleTrees.Node[]",
          "name": "",
          "type": "tuple[]"
        }
      ],
      "stateMutability": "view",
      "type": "function"
    },
    {
      "inputs": [],
      "name": "nextTreeId",
      "outputs": [
        {
          "internalType": "uint256",
          "name": "",
          "type": "uint256"
        }
      ],
      "stateMutability": "view",
      "type": "function"
    },
    {
      "inputs": [
        {
          "internalType": "uint256",
          "name": "",
          "type": "uint256"
        }
      ],
      "name": "trees",
      "outputs": [
        {
          "internalType": "uint256",
          "name": "treeId",
          "type": "uint256"
        },
        {
          "internalType": "uint256",
          "name": "rootId",
          "type": "uint256"
        }
      ],
      "stateMutability": "view",
      "type": "function"
    }
  ],
  "bytecode": "0x608060405234801561001057600080fd5b50610be4806100206000396000f3fe608060405234801561001057600080fd5b50600436106100575760003560e01c80630a997b4f1461005c5780637a5080221461007a578063c4f96e46146100ab578063d56e2101146100c7578063d799160f146100f9575b600080fd5b610064610117565b6040516100719190610496565b60405180910390f35b610094600480360381019061008f91906104f1565b610123565b6040516100a292919061051e565b60405180910390f35b6100c560048036038101906100c09190610799565b610157565b005b6100e160048036038101906100dc91906104f1565b610373565b6040516100f09392919061094f565b60405180910390f35b610101610477565b60405161010e9190610496565b60405180910390f35b60008080549050905090565b6000818154811061013357600080fd5b90600052602060002090600302016000915090508060000154908060010154905082565b81518351148015610169575080518351145b6101a8576040517f08c379a000000000000000000000000000000000000000000000000000000000815260040161019f906109ea565b60405180910390fd5b60008351116101ec576040517f08c379a00000000000000000000000000000000000000000000000000000000081526004016101e390610a7c565b60405180910390fd5b60008360008151811061020257610201610a9c565b5b602002602001015190506000806001816001815401808255809150500390600052602060002090600302019050600154816000018190555081816001018190555060005b85518110156103185781600201604051806060016040528088848151811061027157610270610a9c565b5b6020026020010151815260200187848151811061029157610290610a9c565b5b602002602001015181526020018684815181106102b1576102b0610a9c565b5b602002602001015181525090806001815401808255809150506001900390600052602060002090600302016000909190919091506000820151816000015560208201518160010155604082015181600201555050808061031090610afa565b915050610246565b507fa1daa9061f880b6358166bf6f428679b77f4791db8cd68bbcafa1c188a5503e66001548360405161034c92919061051e565b60405180910390a16001600081548092919061036790610afa565b91905055505050505050565b600080606060008054905084106103bf576040517f08c379a00000000000000000000000000000000000000000000000000000000081526004016103b690610b8e565b60405180910390fd5b60008085815481106103d4576103d3610a9c565b5b90600052602060002090600302019050806000015481600101548260020180805480602002602001604051908101604052809291908181526020016000905b828210156104635783829060005260206000209060030201604051806060016040529081600082015481526020016001820154815260200160028201548152505081526020019060010190610413565b505050509050935093509350509193909250565b60015481565b6000819050919050565b6104908161047d565b82525050565b60006020820190506104ab6000830184610487565b92915050565b6000604051905090565b600080fd5b600080fd5b6104ce8161047d565b81146104d957600080fd5b50565b6000813590506104eb816104c5565b92915050565b600060208284031215610507576105066104bb565b5b6000610515848285016104dc565b91505092915050565b60006040820190506105336000830185610487565b6105406020830184610487565b9392505050565b600080fd5b6000601f19601f8301169050919050565b7f4e487b7100000000000000000000000000000000000000000000000000000000600052604160045260246000fd5b6105958261054c565b810181811067ffffffffffffffff821117156105b4576105b361055d565b5b80604052505050565b60006105c76104b1565b90506105d3828261058c565b919050565b600067ffffffffffffffff8211156105f3576105f261055d565b5b602082029050602081019050919050565b600080fd5b600061061c610617846105d8565b6105bd565b9050808382526020820190506020840283018581111561063f5761063e610604565b5b835b81811015610668578061065488826104dc565b845260208401935050602081019050610641565b5050509392505050565b600082601f83011261068757610686610547565b5b8135610697848260208601610609565b91505092915050565b600067ffffffffffffffff8211156106bb576106ba61055d565b5b602082029050602081019050919050565b6000819050919050565b6106df816106cc565b81146106ea57600080fd5b50565b6000813590506106fc816106d6565b92915050565b6000610715610710846106a0565b6105bd565b9050808382526020820190506020840283018581111561073857610737610604565b5b835b81811015610761578061074d88826106ed565b84526020840193505060208101905061073a565b5050509392505050565b600082601f8301126107805761077f610547565b5b8135610790848260208601610702565b91505092915050565b6000806000606084860312156107b2576107b16104bb565b5b600084013567ffffffffffffffff8111156107d0576107cf6104c0565b5b6107dc86828701610672565b935050602084013567ffffffffffffffff8111156107fd576107fc6104c0565b5b61080986828701610672565b925050604084013567ffffffffffffffff81111561082a576108296104c0565b5b6108368682870161076b565b9150509250925092565b600081519050919050565b600082825260208201905092915050565b6000819050602082019050919050565b6108758161047d565b82525050565b610884816106cc565b82525050565b6060820160008201516108a0600085018261086c565b5060208201516108b3602085018261086c565b5060408201516108c6604085018261087b565b50505050565b60006108d8838361088a565b60608301905092915050565b6000602082019050919050565b60006108fc82610840565b610906818561084b565b93506109118361085c565b8060005b8381101561094257815161092988826108cc565b9750610934836108e4565b925050600181019050610915565b5085935050505092915050565b60006060820190506109646000830186610487565b6109716020830185610487565b818103604083015261098381846108f1565b9050949350505050565b600082825260208201905092915050565b7f4172726179206c656e67746873206d757374206d617463680000000000000000600082015250565b60006109d460188361098d565b91506109df8261099e565b602082019050919050565b60006020820190508181036000830152610a03816109c7565b9050919050565b7f54726565206d75737420636f6e7461696e206174206c65617374206f6e65206e60008201527f6f64650000000000000000000000000000000000000000000000000000000000602082015250565b6000610a6660238361098d565b9150610a7182610a0a565b604082019050919050565b60006020820190508181036000830152610a9581610a59565b9050919050565b7f4e487b7100000000000000000000000000000000000000000000000000000000600052603260045260246000fd5b7f4e487b7100000000000000000000000000000000000000000000000000000000600052601160045260246000fd5b6000610b058261047d565b91507fffffffffffffffffffffffffffffffffffffffffffffffffffffffffffffffff8203610b3757610b36610acb565b5b600182019050919050565b7f5472656520646f6573206e6f7420657869737400000000000000000000000000600082015250565b6000610b7860138361098d565b9150610b8382610b42565b602082019050919050565b60006020820190508181036000830152610ba781610b6b565b905091905056fea26469706673582212206944b3571b8a8caca9ffacb56d77bfe9e9627c2e8f5fba59636ce8d2ace694a664736f6c63430008140033",
  "linkReferences": {},
  "deployedLinkReferences": {}
}