{
  "_format": "hh-sol-artifact-1",
  "contractName": "SentenceStorage",
  "sourceName": "contracts/SentenceStorage.sol",
  "abi": [
    {
      "anonymous": false,
      "inputs": [
        {
          "indexed": true,
          "internalType": "uint256",
          "name": "textId",
          "type": "uint256"
        },
        {
          "indexed": false,
          "internalType": "string[]",
          "name": "sentences",
          "type": "string[]"
        }
      ],
      "name": "SentencesStored",
      "type": "event"
    },
    {
      "inputs": [
        {
          "internalType": "uint256",
          "name": "",
          "type": "uint256"
        },
        {
          "internalType": "uint256",
          "name": "",
          "type": "uint256"
        }
      ],
      "name": "articles",
      "outputs": [
        {
          "internalType": "string",
          "name": "",
          "type": "string"
        }
      ],
      "stateMutability": "view",
      "type": "function"
    },
    {
      "inputs": [
        {
          "internalType": "uint256",
          "name": "textId",
          "type": "uint256"
        }
      ],
      "name": "getSentences",
      "outputs": [
        {
          "internalType": "string[]",
          "name": "",
          "type": "string[]"
        }
      ],
      "stateMutability": "view",
      "type": "function"
    },
    {
      "inputs": [
        {
          "internalType": "bytes32",
          "name": "",
          "type": "bytes32"
        }
      ],
      "name": "sentenceHashes",
      "outputs": [
        {
          "internalType": "bool",
          "name": "",
          "type": "bool"
        }
      ],
      "stateMutability": "view",
      "type": "function"
    },
    {
      "inputs": [
        {
          "internalType": "uint256",
          "name": "textId",
          "type": "uint256"
        },
        {
          "internalType": "string[]",
          "name": "sentences",
          "type": "string[]"
        }
      ],
      "name": "storeSentences",
      "outputs": [],
      "stateMutability": "nonpayable",
      "type": "function"
    }
  ],
  "bytecode": "0x608060405234801561001057600080fd5b50611090806100206000396000f3fe608060405234801561001057600080fd5b506004361061004c5760003560e01c80632dac868d14610051578063a8cb345414610081578063c419fb981461009d578063f3ddf377146100cd575b600080fd5b61006b60048036038101906100669190610564565b6100fd565b60405161007891906106e3565b60405180910390f35b61009b6004803603810190610096919061076a565b610240565b005b6100b760048036038101906100b291906107ca565b61044b565b6040516100c49190610854565b60405180910390f35b6100e760048036038101906100e291906108ac565b610504565b6040516100f491906108f4565b60405180910390f35b606060008060008481526020019081526020016000208054905011610157576040517f08c379a000000000000000000000000000000000000000000000000000000000815260040161014e9061095b565b60405180910390fd5b600080838152602001908152602001600020805480602002602001604051908101604052809291908181526020016000905b828210156102355783829060005260206000200180546101a8906109aa565b80601f01602080910402602001604051908101604052809291908181526020018280546101d4906109aa565b80156102215780601f106101f657610100808354040283529160200191610221565b820191906000526020600020905b81548152906001019060200180831161020457829003601f168201915b505050505081526020019060010190610189565b505050509050919050565b60008060008581526020019081526020016000208054905014610298576040517f08c379a000000000000000000000000000000000000000000000000000000000815260040161028f90610a4d565b60405180910390fd5b6000806000858152602001908152602001600020905060005b8383905081101561040c5760008484838181106102d1576102d0610a6d565b5b90506020028101906102e39190610aab565b6040516020016102f4929190610b4d565b6040516020818303038152906040528051906020012090506001600082815260200190815260200160002060009054906101000a900460ff161561036d576040517f08c379a000000000000000000000000000000000000000000000000000000000815260040161036490610bb2565b60405180910390fd5b600180600083815260200190815260200160002060006101000a81548160ff021916908315150217905550828585848181106103ac576103ab610a6d565b5b90506020028101906103be9190610aab565b909180600181540180825580915050600190039060005260206000200160009091929091929091929091925091826103f7929190610db8565b5050808061040490610eb7565b9150506102b1565b50837fb7e69084dcf2774aa9944e1742236c0fe568758591ffefae906abf1d083463ff8260405161043d9190611038565b60405180910390a250505050565b6000602052816000526040600020818154811061046757600080fd5b90600052602060002001600091509150508054610483906109aa565b80601f01602080910402602001604051908101604052809291908181526020018280546104af906109aa565b80156104fc5780601f106104d1576101008083540402835291602001916104fc565b820191906000526020600020905b8154815290600101906020018083116104df57829003601f168201915b505050505081565b60016020528060005260406000206000915054906101000a900460ff1681565b600080fd5b600080fd5b6000819050919050565b6105418161052e565b811461054c57600080fd5b50565b60008135905061055e81610538565b92915050565b60006020828403121561057a57610579610524565b5b60006105888482850161054f565b91505092915050565b600081519050919050565b600082825260208201905092915050565b6000819050602082019050919050565b600081519050919050565b600082825260208201905092915050565b60005b838110156105f75780820151818401526020810190506105dc565b60008484015250505050565b6000601f19601f8301169050919050565b600061061f826105bd565b61062981856105c8565b93506106398185602086016105d9565b61064281610603565b840191505092915050565b60006106598383610614565b905092915050565b6000602082019050919050565b600061067982610591565b610683818561059c565b935083602082028501610695856105ad565b8060005b858110156106d157848403895281516106b2858261064d565b94506106bd83610661565b925060208a01995050600181019050610699565b50829750879550505050505092915050565b600060208201905081810360008301526106fd818461066e565b905092915050565b600080fd5b600080fd5b600080fd5b60008083601f84011261072a57610729610705565b5b8235905067ffffffffffffffff8111156107475761074661070a565b5b6020830191508360208202830111156107635761076261070f565b5b9250929050565b60008060006040848603121561078357610782610524565b5b60006107918682870161054f565b935050602084013567ffffffffffffffff8111156107b2576107b1610529565b5b6107be86828701610714565b92509250509250925092565b600080604083850312156107e1576107e0610524565b5b60006107ef8582860161054f565b92505060206108008582860161054f565b9150509250929050565b600082825260208201905092915050565b6000610826826105bd565b610830818561080a565b93506108408185602086016105d9565b61084981610603565b840191505092915050565b6000602082019050818103600083015261086e818461081b565b905092915050565b6000819050919050565b61088981610876565b811461089457600080fd5b50565b6000813590506108a681610880565b92915050565b6000602082840312156108c2576108c1610524565b5b60006108d084828501610897565b91505092915050565b60008115159050919050565b6108ee816108d9565b82525050565b600060208201905061090960008301846108e5565b92915050565b7f41727469636c6520646f6573206e6f7420657869737400000000000000000000600082015250565b600061094560168361080a565b91506109508261090f565b602082019050919050565b6000602082019050818103600083015261097481610938565b9050919050565b7f4e487b7100000000000000000000000000000000000000000000000000000000600052602260045260246000fd5b600060028204905060018216806109c257607f821691505b6020821081036109d5576109d461097b565b5b50919050565b7f41727469636c6520616c72656164792073746f72656420666f7220746578744960008201527f6400000000000000000000000000000000000000000000000000000000000000602082015250565b6000610a3760218361080a565b9150610a42826109db565b604082019050919050565b60006020820190508181036000830152610a6681610a2a565b9050919050565b7f4e487b7100000000000000000000000000000000000000000000000000000000600052603260045260246000fd5b600080fd5b600080fd5b600080fd5b60008083356001602003843603038112610ac857610ac7610a9c565b5b80840192508235915067ffffffffffffffff821115610aea57610ae9610aa1565b5b602083019250600182023603831315610b0657610b05610aa6565b5b509250929050565b600081905092915050565b82818337600083830152505050565b6000610b348385610b0e565b9350610b41838584610b19565b82840190509392505050565b6000610b5a828486610b28565b91508190509392505050565b7f4475706c69636174652073656e74656e636520666f756e640000000000000000600082015250565b6000610b9c60188361080a565b9150610ba782610b66565b602082019050919050565b60006020820190508181036000830152610bcb81610b8f565b9050919050565b600082905092915050565b7f4e487b7100000000000000000000000000000000000000000000000000000000600052604160045260246000fd5b60008190508160005260206000209050919050565b60006020601f8301049050919050565b600082821b905092915050565b600060088302610c6e7fffffffffffffffffffffffffffffffffffffffffffffffffffffffffffffffff82610c31565b610c788683610c31565b95508019841693508086168417925050509392505050565b6000819050919050565b6000610cb5610cb0610cab8461052e565b610c90565b61052e565b9050919050565b6000819050919050565b610ccf83610c9a565b610ce3610cdb82610cbc565b848454610c3e565b825550505050565b600090565b610cf8610ceb565b610d03818484610cc6565b505050565b5b81811015610d2757610d1c600082610cf0565b600181019050610d09565b5050565b601f821115610d6c57610d3d81610c0c565b610d4684610c21565b81016020851015610d55578190505b610d69610d6185610c21565b830182610d08565b50505b505050565b600082821c905092915050565b6000610d8f60001984600802610d71565b1980831691505092915050565b6000610da88383610d7e565b9150826002028217905092915050565b610dc28383610bd2565b67ffffffffffffffff811115610ddb57610dda610bdd565b5b610de582546109aa565b610df0828285610d2b565b6000601f831160018114610e1f5760008415610e0d578287013590505b610e178582610d9c565b865550610e7f565b601f198416610e2d86610c0c565b60005b82811015610e5557848901358255600182019150602085019450602081019050610e30565b86831015610e725784890135610e6e601f891682610d7e565b8355505b6001600288020188555050505b50505050505050565b7f4e487b7100000000000000000000000000000000000000000000000000000000600052601160045260246000fd5b6000610ec28261052e565b91507fffffffffffffffffffffffffffffffffffffffffffffffffffffffffffffffff8203610ef457610ef3610e88565b5b600182019050919050565b600081549050919050565b60008190508160005260206000209050919050565b60008154610f2c816109aa565b610f3681866105c8565b94506001821660008114610f515760018114610f6757610f9a565b60ff198316865281151560200286019350610f9a565b610f7085610c0c565b60005b83811015610f9257815481890152600182019150602081019050610f73565b808801955050505b50505092915050565b6000610faf8383610f1f565b905092915050565b6000600182019050919050565b6000610fcf82610eff565b610fd9818561059c565b935083602082028501610feb85610f0a565b8060005b85811015611026578484038952816110078582610fa3565b945061101283610fb7565b925060208a01995050600181019050610fef565b50829750879550505050505092915050565b600060208201905081810360008301526110528184610fc4565b90509291505056fea2646970667358221220efefb376b0c6d3e29bfdcf892bc7d17427b7075bc6ed6bb063a203d55b4723a264736f6c63430008140033",
  "linkReferences": {},
  "deployedLinkReferences": {}
}